:020000040800F2
:10000000208B00207901000857070008A10600088E
:10001000ED060008DD040008B959000800000000E2
:10002000000000000000000000000000214C00085B
:100030008505000800000000570400085951000819
:100040009301000893010008930100089301000840
:100050009301000893010008930100089301000830
:100060009301000893010008930100089301000820
:100070009301000893010008930100089301000810
:100080009301000893010008930100089301000800
:1000900093010008930100089301000893010008F0
:1000A00093010008930100089301000893010008E0
:1000B00093010008930100089301000893010008D0
:1000C00093010008930100089301000893010008C0
:1000D00093010008CD54000845550008930100081D
:1000E00093010008930100089301000893010008A0
:1000F0009301000893010008930100089301000890
:10010000930100089301000893010008930100087F
:10011000930100089301000893010008930100086F
:10012000930100089301000893010008930100085F
:10013000DFF80CD000F054F900480047F55F0008E4
:10014000208B002072B6704762B67047EFF31080C4
:1001500072B6704780F31088704730BF704720BF79
:100160007047B0FA80F0704790FAA0F0B0FA80F0D3
:10017000704790FAA0F0704706488047064800474D
:10018000FEE7FEE7FEE7FEE7FEE7FEE7FEE7FEE747
:10019000FEE7FEE775510008310100082DE9F05F28
:1001A0000546002092469B468846064681464024E6
:1001B0001BE0284641464746224600F0ADF853462C
:1001C0005A46C01A914110D311461846224600F0F3
:1001D00094F82D1A67EB01084F46224601200021B2
:1001E00000F08BF817EB00094E41201EA4F101042A
:1001F000DFDC484631462A464346BDE8F09F40EAE8
:1002000001039B0703D009E008C9121F08C0042A94
:10021000FAD203E011F8013B00F8013B521EF9D27B
:100220007047D2B201E000F8012B491EFBD27047A3
:100230000022F6E710B513460A4604461946FFF7B2
:10024000F0FF204610BD421C10F8011B0029FBD115
:10025000801A704710B5002200E0521C835C8C5C51
:10026000A34201D1002BF8D1D8B2E1B2401A10BD9F
:100270002DE9F04791460F4680460446002614F8C3
:10028000015B2DB100F058F80068405DC007F6D161
:100290002B2D02D02D2D18D0641E4A4639462046FB
:1002A00000F04EF827B13968A14201D1C7F80080AB
:1002B00071054FF002040BD54042002803DD05F024
:1002C000D3FB0460A007BDE8F08746F48066E4E74E
:1002D0000028F8DA05F0C8FB04606FF00040F2E790
:1002E00070B5064605F0C0FB046805460A220021E9
:1002F0003046FFF7BDFF2C6070BD202A04DB203A9A
:1003000000FA02F1002070479140C2F1200320FA68
:1003100003F3194390407047202A04DB203A21FA66
:1003200002F00021704721FA02F3D040C2F120020E
:10033000914008431946704700487047C063000861
:100340002DE9F05F82460078002715468B460AF1BA
:100350000104B946302801D09DB113E014F8010B17
:100360000127782803D0582801D045B10AE00DB103
:10037000102D07D10027102514F8010B02E00825E5
:1003800000E00A250026B0460EE005FB080005FB4C
:1003900006F1012701EB10461FFA80F8B6F5803F01
:1003A00000D3B94614F8010B294600F02BF80028B9
:1003B000EBDABBF1000F05D00FB1641E00E054462C
:1003C000CBF80040B9F1000F06D005F04DFB02213B
:1003D0000160C81EBDE8F09F48EA0640FAE7000049
:1003E000064C074D06E0E06840F0010394E8070082
:1003F00098471034AC42F6D3FFF79EFEE063000846
:10040000006400083A2800D2303820F02002412A47
:1004100001D3A2F13700884201D34FF0FF3070477B
:100420001D484FF6FF710170002080F309881B48BA
:10043000016881F308881A484FF08051016062B664
:10044000FEE717484FF080510160704714484FF0A5
:1004500080510160704772B6EFF3098028B12038EF
:1004600080E8F00F0F490968086000B50E48804722
:100470005DF804EB0D480E490A78027009480D49F1
:100480000A680260106890E8F00F203080F3098855
:100490004EF0040E62B6704722ED00E00401002029
:1004A00004ED00E0FC000020651900088A0000202F
:1004B0008B0000200001002000B585B0684604F0E4
:1004C00023FB019805B000BD10B54FF4E13005F0F5
:1004D000ADF94FF4165005F011FA10BD00BFFEE75C
:1004E00010B500F01FF800F019F810BD10B5002489
:1004F00000BF00BFFFF72AFE044600BF00BF102167
:10050000054800F0F5F800BF00BF2046FFF722FEC7
:1005100000BF00BF10BD00009C67002010B5FFF7B2
:10052000E5FF10BD10B500200249086000F00AF890
:1005300010BD000030000020014908607047000035
:100540003000002010B5FFF7B7FF044608480068E8
:1005500040F080700649086000200649486008465F
:10056000006840F0010008602046FFF7E5FF10BD7D
:10057000FCED00E0001000E0014948687047000011
:10058000001000E070472DE9F041024600250026EA
:10059000002000230024002791F803C00CF00F0571
:1005A00091F803C00CF0100CBCF1000F03D091F8CF
:1005B00002C04CEA050591F800C0BCF1000F31D033
:1005C000146800202BE04FF0010C0CFA00F3B1F896
:1005D00000C00CEA03069E4220D183004FF00F0CAE
:1005E0000CFA03F7BC4305FA03FC4CEA040491F847
:1005F00003C0BCF1280F06D14FF0010C0CFA00FC2F
:10060000C2F814C00AE091F803C0BCF1480F05D14C
:100610004FF0010C0CFA00FCC2F810C0401C082876
:10062000D1D31460B1F800C0BCF1FF0F34DD5468C1
:1006300000202EE000F1080C4FF0010808FA0CF33E
:10064000B1F800C00CEA03069E4221D183004FF0AE
:100650000F0C0CFA03F7BC4305FA03FC4CEA040444
:1006600091F803C0BCF1280F05D100F1080C08FA7D
:100670000CF8C2F8148091F803C0BCF1480F07D100
:1006800000F1080C4FF0010808FA0CF8C2F81080CD
:10069000401C0828CED35460BDE8F081016170474A
:1006A00000BFFEE708B50121082004F00DFA202064
:1006B000ADF8000010208DF8030003208DF8020033
:1006C00069460948FFF75FFF20210748FFF7E6FF6B
:1006D0000120ADF8000069460348FFF754FF0121EF
:1006E0000148FFF7DBFF08BD000C014000BFFEE73B
:1006F00030B505460C4622460021284600F001F898
:1007000030BD2DE9F04105460B46944600270024F4
:1007100002E03F021F43641C042CFAD3604605F03C
:100720000306294646B1344603E001F8013B401E6A
:10073000641C08B1042CF8D30A4601E080C2001FF3
:100740000428FBD2114602E001F8013B401E0028BC
:10075000FAD1BDE8F081704770B5002100230F2267
:10076000C47804B3154C246804F4E064C4F5E06470
:10077000210AC1F10403CA40447804FA03F18478E1
:100780001440214309010E4C0678A155047804F069
:100790001F050124AC4005786D11AD0005F1E02581
:1007A000C5F8004109E0047804F01F050124AC40BD
:1007B000044D0678761145F8264070BD0CED00E03A
:1007C00000E400E080E100E002490143024A1160D8
:1007D000704700000000FA050CED00E015481648CF
:1007E00016481748174818481848194819481A4809
:1007F0001A481B481B481C481C481D481D481E48D9
:100800001E481F481F4820482048214821482248A8
:100810002248234823482448244825482548264878
:10082000264827482748284828482948294800BFFB
:1008300070470000CC6100082C610008306100089E
:1008400034610008386100083C610008406100081C
:1008500044610008486100084C61000850610008CC
:1008600054610008586100085C610008606100087C
:1008700064610008686100086C610008706100082C
:1008800074610008786100087C61000880610008DC
:1008900084610008886100088C610008906100088C
:1008A00094610008986100089C610008A06100083C
:1008B000A4610008A8610008AC610008B0610008EC
:1008C000B4610008B8610008BC610008C06100089C
:1008D000C4610008C861000810B50348006810B181
:1008E00001480068804710BD4800002070B50446EC
:1008F00000F0C2F80020484908704849087048498B
:1009000008704849086048490860484908704849E3
:1009100008704849087048490860484908604849D3
:10092000086048490870484800680A21B0FBF1F0A7
:10093000464908604648006858B14648056845B1D0
:100940004348066803E0761E002028602D1D002E17
:10095000F9D10020404908604049086040490860DA
:1009600040490860404908604049086040490860C3
:100970004049087002F0A4F902F084FA204601F020
:1009800033FB208800B170BD204601F015FF2088A0
:1009900000B1F8E7204601F037FF208800B1F2E708
:1009A000204602F003F8208800B1ECE7204602F070
:1009B000B7F9208800B1E6E7204602F0DBFB20888B
:1009C00000B1E0E7204602F0FDFE208800B1DAE742
:1009D000204601F05DFE208800B1D4E7204601F0FA
:1009E00075FC208800B1CEE7204603F05BFE20882E
:1009F00000B1C8E7204602F029FE208800B1C2E716
:100A0000204603F0ABFE208800B1BCE701F014FAE9
:100A1000FFF7E4FE00BFB6E75C0000205D000020A9
:100A2000A4000020FC000020000100208A0000201B
:100A30008B0000208C000020980000209C000020EB
:100A4000A0000020AC0000208C610008A80000205D
:100A50005C610008586100083C0000204000002054
:100A600044000020480000204C00002050000020DE
:100A700054000020DA0000200A4A1168002002E039
:100A8000002204C1401C084A12689042F8D3054A6B
:100A90001268054B1B6802EB8302121F034B1A609E
:100AA00070470000586100085C61000804010020E4
:100AB00008480078012800D0704707480078FA28D5
:100AC00000DBF9E704480078401C0349087000BFC8
:100AD000F2E700005D0000205C00002010B500245B
:100AE0002E480078012800D010BD00BFFFF72EFB74
:100AF000044600BF2A48007828B900BF2046FFF707
:100B000029FB00BFF0E726480078401E2449087002
:100B100008460078002805DD00BF2046FFF71AFBD5
:100B200000BFE1E71F480078002805DD00BF204630
:100B3000FFF710FB00BFD7E702F0AEF81A490870C4
:100B40000846007800EB4000184951F82000184989
:100B500008600846006817490968884205D100BF47
:100B60002046FFF7F7FA00BFBEE711480068D0F84B
:100B70009000401C0E490968C1F890000E480068BA
:100B8000401C0D4908604FF080500C49086000BFC0
:100B90002046FFF7DFFA00BF00BFA5E75D00002099
:100BA0005C000020A40000208B000020D07D0020ED
:100BB00000010020FC000020D000002004ED00E037
:100BC00010B5002420480078002800DD10BD1F4823
:100BD0000078002800DDF9E700BFFFF7B7FA044608
:100BE00000BF02F059F81A4908700846007800EB77
:100BF0004000184951F8200017490860084600686D
:100C000016490968884205D100BF2046FFF7A2FABD
:100C100000BFDBE710480068D0F89000401C0E4988
:100C20000968C1F890000E480068401C0C49086033
:100C30004FF080500B49086000BF2046FFF78AFA4A
:100C400000BF00BFC2E700005C000020A40000203D
:100C50008B000020D07D002000010020FC0000203F
:100C6000D000002004ED00E070B5044600251848CF
:100C70000078002803DD46F66250208070BD1548DC
:100C80000078012803D045F689602080F6E71248F5
:100C90000078FA2803DB45F209202080EEE700BF48
:100CA00000BFFFF753FA054600BF00BF0A480078AF
:100CB000401C0949087002F0C9F900BF00BF28466E
:100CC000FFF748FA00BF00BF0020208000BFD5E733
:100CD0005C0000205D000020A40000202DE9F04110
:100CE00005460C461646002700BF00BFFFF72EFA48
:100CF000074600BF00BF012D03D000200D4908703A
:100D000002E001200B49087014B10B48046006E0B2
:100D10000A4800680A21B0FBF1F00749086000BFEB
:100D200000BF3846FFF716FA00BF00BF0020308032
:100D3000BDE8F081AC000020A80000208C61000814
:100D400070B50446002520480078002803DD46F6EB
:100D50006550208070BD1D480078012803D045F6FD
:100D600089602080F6E71A48007818B946F6645082
:100D70002080EFE700BF00BFFFF7E8F9054600BF9E
:100D800000BF13480078401E1149087008460078DB
:100D900000280ADD00BF00BF2846FFF7DBF900BFCF
:100DA00000BF46F663502080D4E702F05DF900BF33
:100DB00000BF2846FFF7CEF900BF00BFFFF700FFD6
:100DC0000020208000BFC5E75C0000205D000020FF
:100DD000A400002010B5044612480078E8B901F0DC
:100DE0005BFF1149087008460078104908700E48EA
:100DF000007800EB40000E4951F820000D490860D2
:100E0000084600680C490860012006490870FFF791
:100E100007FB43F69920208002E045F68A60208097
:100E200010BD00005D0000208B0000208A00002023
:100E3000D07D002000010020FC0000202DE9F041C1
:100E400007464FF0000800BF00BFFFF77FF980465C
:100E500000BF00BF00203D4908603D4908803D4972
:100E600008803D4908603D4908603D4908603D49AA
:100E700008603D49088100BF00BF4046FFF76AF99E
:100E800000BF00BF00BF00BFFFF760F9804600BF92
:100E900000BF3648046800BF00BF4046FFF75AF95C
:100EA00000BF00BF21E000BF00BFFFF74FF9804641
:100EB00000BF00BF00207834E06320602063A061A1
:100EC000A082E0826062A062FFF756FB2062783C5D
:100ED00004F164060020B081D4F8BC4000BF00BF1C
:100EE0004046FFF737F900BF00BF002CDBD100BF41
:100EF00000BFFFF72BF9804600BF00BF1C48056804
:100F000000BF00BF4046FFF725F900BF00BF12E059
:100F100000BF00BFFFF71AF9804600BF00BF05F110
:100F200020060020B081AD6900BF00BF4046FFF73A
:100F300011F900BF00BF002DEAD103F08FFA03F0D2
:100F400009FD00203880BDE8F0810000700000201D
:100F50006A000020BA000020CC000020E000002041
:100F6000EC0000209C000020C47D0020D400002064
:100F700090000020F8B5044600266946324800F08B
:100F8000C1FCBDF8000018B1BDF800002080F8BD1C
:100F90006A460021022000F09FFDBDF8000018B154
:100FA000BDF800002080F2E700BF00BFFFF7CEF8D9
:100FB000064600BF00BF00202449086000BF00BFF4
:100FC0003046FFF7C7F800BF00BF00252048006883
:100FD00020490968884205D91D4800681D490968EB
:100FE000B0FBF1F525B91A4800680A21B0FBF1F50C
:100FF0006A460021284600F06FFD6946124800F05D
:1010000063FABDF8000018B1BDF800002080BEE70B
:1010100000BF00BFFFF79AF8064600BF00BF0020E0
:101020000D490860094800680C49086001200C4916
:10103000087000BF00BF3046FFF78CF800BF00BF4C
:101040000020208000BFA2E758820020BC000020C2
:101050008C61000874610008CC000020C0000020F2
:10106000C800002010B50348006810B101480068AE
:10107000804710BD4C0000202DE9FF4F87B004468B
:101080009046DDE91BA5DDE91496179F002003902B
:1010900087480078002805DD47F24A1028800BB009
:1010A000BDE8F08F1CB947F2AD102880F7E7B8F122
:1010B000000F03D147F24F102880F0E71EB946F623
:1010C0002F602880EBE77B480068874203D246F612
:1010D00030602880E3E71698B84203D346F63160C3
:1010E0002880DCE7B9F1400F03D346F27320288053
:1010F000D5E7B9F1000F06D16F48844203D046F21C
:1011000073202880CBE7B9F13F0F06D16B488442AA
:1011100003D046F273202880C1E7204602F062FB2C
:10112000002028800AF0010090B10AF0020078B196
:1011300005960020069008E00021059801600598BA
:10114000001D05900698401C06900698B842F3D3FF
:10115000169806EB80000490CDE9007A32464046AE
:10116000049B0A9900F06EFB0590C4F828800A9849
:10117000E0620898206284F837900598206004980F
:10118000A06019986065199818B94D480068A06565
:1011900001E01998A0651A9860606662A763A4F8D8
:1011A0003CA04FF0000B08E0002104F17C0040F867
:1011B0002B100BF1010000F0FF0BBBF1000FF3D07F
:1011C00004F16400189901F06BFB204600F082F8EE
:1011D00000BF00BF00BFFEF7B9FF039000BF00BF14
:1011E00038480078401C3749087000BF00BF03989A
:1011F000FEF7B0FF00BF00BF00BF94F8370001F05A
:101200006BFD204601F086FE204602F0A1FA2E4832
:101210000088401C2C4908802C48007801282DD0DB
:1012200000BF00BF00BFFEF791FF039000BF00BFEB
:1012300024480078401E2349087008460078A0B969
:1012400023480088002809DD00BF00BF0398FEF78F
:1012500081FF00BF00BF01F0CBFE0DE000BF00BF6B
:101260000398FEF777FF00BF06E000BF00BF0398BA
:10127000FEF770FF00BF00BF00BF10E700BF00BF58
:1012800000BFFEF763FF039000BF00BF0D4800786A
:10129000401E0C49087000BF00BF0398FEF75AFFBC
:1012A00000BF00BF00BFFFF78BFC00BFF7E60000E8
:1012B0005C00002088610008007D00203C7C00204C
:1012C000A8000020A4000020D80000205D0000201D
:1012D0006800002010B504460348006818B1204695
:1012E00001490968884710BD3C00002070B50446DC
:1012F0000D46002667480078002803DD47F24E10AF
:10130000288070BD6448844203D147F24C10288085
:10131000F7E76248844203D147F24D102880F0E796
:101320007CB900BF00BFFEF711FF064600BF00BF3B
:101330005B48046800BF00BF3046FEF70BFF00BFEC
:1013400000BF00BF00BF00BFFEF700FF064600BFA2
:1013500000BF54480078401C5249087000BF00BFCD
:101360003046FEF7F7FE00BF00BF00BF94F836001E
:1013700008282DD2DFE800F004090E10080A0F112A
:10138000204601F007FE54E053E000BF204603F082
:1013900049F84EE000BF00BF00BF204603F042F80E
:1013A00094F83400082810D2DFE800F0040705089C
:1013B000090A0B0600BF00BF08E000BF00BF00BF66
:1013C00000BF204601F0B9FB00E000BF00BF30E0E5
:1013D00000BF00BF00BFFEF7B9FE064600BF00BF5A
:1013E00030480078401E2F49087008460078A0B9A0
:1013F0002D480088002809DD00BF00BF3046FEF7F9
:10140000A9FE00BF00BF01F0F3FD0DE000BF00BF6B
:101410003046FEF79FFE00BF06E000BF00BF30462B
:10142000FEF798FE00BF00BF00BF46F62D60288083
:1014300067E700BF04F1640001F010FA204600F0F5
:1014400037F8204602F09CF918480088401E1749DA
:101450000880204602F0C6F9FF2084F8360000BF5D
:1014600000BF00BFFEF772FE064600BF00BF0D487A
:101470000078401E0B49087000BF00BF3046FEF7E1
:1014800069FE00BF00BF00BF00202880FFF798FB67
:1014900000BF36E75C0000203C7C0020007D00207F
:1014A000FC000020A400002068000020D8000020DC
:1014B00010B504460348006818B120460149096880
:1014C000884710BD400000207FB504460D46002629
:1014D00000BF00BFFEF73AFE064600BF00BF1CB1CA
:1014E0001548006884420AD100BF00BF3046FEF7AD
:1014F00031FE00BF00BF47F2571028807FBD00BFFC
:1015000000BF3046FEF726FE00BF00BF0B48007844
:1015100000280BDD00200090019003460246214682
:10152000CDE90205064800F009FFE7E72946204615
:1015300002F0D0FA00BFE1E7FC0000205C000020D0
:101540005452455310B504460348006818B120466C
:1015500001490968884710BD440000202DE9F04783
:1015600080460E4614461D464FF000097D4800781F
:10157000002805DD46F2AE1028800020BDE8F08787
:101580001EB1B6F5004F02D100E000BF04E045F601
:10159000256028800020F1E700BF0CB1002020600A
:1015A00000BF00BFFEF7D2FD814600BF00BF6E48FE
:1015B0000068406CA8B36C480068406C401E6A49E3
:1015C0000968486468480068476C1CB16648006850
:1015D000006C2060FEF7D0FF63490968096C401A6F
:1015E00061490968C1F8A4005F480068D0F8A80004
:1015F0005D490968D1F8A410884207D25A480068AA
:10160000D0F8A40058490968C1F8A80000BF00BF7D
:101610004846FEF79FFD00BF00BF002028803846E7
:10162000ACE7FFE706F4004058B100BF00BF4846F2
:10163000FEF790FD00BF00BF46F2B01028800020EA
:101640009CE74A48007800280BDD00BF00BF4846F1
:10165000FEF780FD00BF00BF46F6635028800020E3
:101660008CE700BF41480078401C4049087000BF2B
:1016700000BF4846FEF76EFD00BF00BF00BF4346F7
:1016800007220021084601F09DF900BF00BF00BFFE
:10169000FEF75CFD814600BF00BF34480078401E65
:1016A0003249087000BF00BF4846FEF753FD00BF37
:1016B00000BF00BFFFF784FA00BF00BFFEF746FD82
:1016C000814600BF00BF2848006890F8350020B16F
:1016D000012826D0032834D12CE0FCB12248006830
:1016E000006C2060FEF748FF1F490968096C401A2A
:1016F0001D490968C1F8A4001B480068D0F8A8007B
:1017000019490968D1F8A410884207D21648006820
:10171000D0F8A40014490968C1F8A8000020288066
:1017200013E01CB110480068006C206046F2A9105C
:1017300028800AE00CB10020206047F2D9202880E0
:1017400003E046F62E60288000BF00BF0648006810
:10175000476C00BF00BF4846FEF7FCFC00BF00BF5F
:1017600038460BE75C000020FC000020A4000020AD
:101770002DE9F04705460E4617461C464FF0000A75
:101780002E480078002804DD47F259102080BDE87B
:10179000F0871EB946F2D5202080F8E71FB946F23F
:1017A000D5202080F3E700BF00BFFEF7CFFC8246C4
:1017B00000BF00BF0DB922480568286868B900BF9E
:1017C00000BF5046FEF7C6FC00BF00BF00203060DF
:1017D000386047F252102080D9E795F83C0000F0BD
:1017E000010068B900BF00BF5046FEF7B3FC00BF60
:1017F00000BF00203060386047F254102080C6E7F8
:1018000000BF00BF5046FEF7A5FC00BF00BF4FF071
:101810000008D5F8249003E009F1040908F1010853
:10182000D9F800000028F7D0C6F80080A86BA0EB1C
:10183000080038600020208000BFA8E75C0000207E
:10184000FC000020F0B50446DDE9055602EB8500FA
:101850004FF0807C071F3846C7F800C0071F384686
:101860003C60DFF89CC0071F3846C7F800C04FF047
:10187000123C071F3846C7F800C04FF0033C071F53
:101880003846C7F800C04FF0023C071F3846C7F87B
:1018900000C0071F38463B60071F384639604FF0CD
:1018A000113C071F3846C7F800C04FF0103C071F17
:1018B0003846C7F800C04FF0093C071F3846C7F844
:1018C00000C04FF0083C071F3846C7F800C04FF073
:1018D000073C071F3846C7F800C04FF0063C071FFB
:1018E0003846C7F800C04FF0053C071F3846C7F818
:1018F00000C04FF0043C071F3846C7F800C0F0BDD9
:10190000153C00087FB505460C461248854203D1B8
:1019100047F25B1020807FBD0F48854203D147F21C
:101920005C102080F7E70D48007800280BDD0020D0
:1019300000900190034602462946CDE9020408487A
:1019400000F0FCFCE7E72146284602F0D1FB00BF8F
:10195000E1E700003C7C0020007D00205C000020CE
:101960005453555310B51D48006810B11B4800680A
:101970008047FEF701FE04461948006819490968C6
:10198000884215D016480068D0F89800201A1449EB
:101990000968C1F8940012480068D0F89C0010490A
:1019A0000968D1F8941008440D490968C1F89C00F1
:1019B0000C480068C0F8984009480068D0F8B400A6
:1019C00009490968884205D207480068044909683E
:1019D000C1F8B40000200449086010BD5000002088
:1019E000FC00002000010020A000002000B58BB00A
:1019F0000AA8032100220592CDE90621089010468D
:101A00004FF4007133221F4BCDE9013200230092C5
:101A1000CDE903101C4A1DA12048FFF72DFB0AA8A1
:101A2000032100220592CDE90621089010464FF4CB
:101A3000806166221A4BCDE90132CDE903103220D4
:101A40000023184A18A100901C48FFF715FB0AA8AC
:101A5000032100220592CDE90621089010464FF49B
:101A60000061CC22164BCDE90132CDE903103420C0
:101A70000023144A14A100901648FFF7FDFA0BB09A
:101A800000BD00009C3F0020DD4B000872756E69B0
:101A90006E67206C6564207461736B00140600200F
:101AA0009C2F0020095A000856657273696F6E20DA
:101AB000557064617461207461736B00500500207F
:101AC0009C4700209152000844627567207461733E
:101AD0006B000000D80600202DE9F04105460E46B7
:101AE000144600273F480078002804DD47F275209F
:101AF0002080BDE8F0813C480078002803DD46F6F0
:101B000063502080F5E736B1022E05D0042E0AD0AE
:101B1000082E09D101E000BF00BF1DB947F27E20A9
:101B20002080E6E704E003E045F625602080E0E75A
:101B300000BF00BF00BF00BFFEF708FB074600BFA5
:101B400000BF29480078401C2749087000BF00BF2B
:101B50003846FEF7FFFA00BF00BF00BF012023494F
:101B6000096881F836002346324629461F48006836
:101B700002F07AFB2088A8B100BF00BF00BFFEF7CB
:101B8000E5FA074600BF00BF17480078401E164917
:101B9000087000BF00BF3846FEF7DCFA00BF00BF88
:101BA00000BFA6E71148006801F0F4F900BF00BFCC
:101BB00000BFFEF7CBFA074600BF00BF0A48007817
:101BC000401E0949087000BF00BF3846FEF7C2FA40
:101BD00000BF00BF00BFFEF7F3FF0020208000BF62
:101BE00087E700005C000020A4000020FC0000202B
:101BF0002DE9FF5F05460E4617469846DDE90EA41F
:101C00000020009072480078002804DD47F275201B
:101C10002080BDE8FF9F6F480078002803DD46F66E
:101C200063502080F5E70AF00E0BBBF1000F09D0DE
:101C3000BBF1020F07D0BBF1040F10D0BBF1080FAE
:101C40000ED101E000BF00BFB8F1000F06D12FB9DF
:101C500026B91DB947F27E202080DAE704E003E0D0
:101C600045F625602080D4E700BF2AF01E0008B1A9
:101C7000012000E0002003900398012803D145F6DD
:101C800025602080C5E7CAF3001002900298C0B911
:101C9000B8F57A7F03D347F27B202080B9E73B2F4A
:101CA00003DD47F27A202080B3E73B2E03DD47F2C5
:101CB00079202080ADE7632D12DD47F27820208067
:101CC000A7E742F20F70864203DD47F279202080B9
:101CD0009FE7B5F57A7F03DB47F27820208098E70D
:101CE0003D48D0F800904FF4FA70B0FBF9F0404452
:101CF00000FB09F04FF47A71B0FBF1F14FF4616031
:101D00006843C6EB061200EB8200384400FB091062
:101D100001900198002856D000BF00BF00BFFEF719
:101D200015FA009000BF00BF2A480078401C2949DE
:101D3000087000BF00BF0098FEF70CFA00BF00BF9C
:101D400000BF01202549096881F8360023465A461C
:101D500022480199006802F087FA2088A8B100BFE4
:101D600000BF00BFFEF7F2F9009000BF00BF1948A6
:101D70000078401E1749087000BF00BF0098FEF7AA
:101D8000E9F900BF00BF00BF43E71448006801F055
:101D900001F900BF00BF00BFFEF7D8F9009000BFF7
:101DA00000BF0C480078401E0A49087000BF00BF01
:101DB0000098FEF7CFF900BF00BF00BFFEF700FF9D
:101DC0000020208002E047F27E20208000BF20E734
:101DD0005C000020A40000208C610008FC000020B2
:101DE00010B586B000F01EF8FEF7C6FB044605A845
:101DF00000210091CDE9011403900748007800EB21
:101E00004000064A02EB800100231A46044800F015
:101E100095FA06B010BD00008A000020D07D002099
:101E20005449434B10B50348006810B1014800689D
:101E3000804710BD540000202448254825482648E6
:101E400026482748274828482848294829482A4812
:101E50002A482B482B482C482C482D482D482E48E2
:101E60002E482F482F4830483048314831483248B2
:101E70003248334833483448344835483548364882
:101E800036483748374838483848394839483A4852
:101E90003A483B483B483C483C483D483D483E4822
:101EA0003E483F483F4840484048414841484248F2
:101EB00042484348434844484448454845484648C2
:101EC00046484748474800BF70470000D0610008B7
:101ED00038630008D2610008D3610008D4610008AB
:101EE000D8610008DC610008D961000804620008BC
:101EF0000562000806620008086200080A6200081D
:101F00000C6200080E6200081062000830620008CF
:101F10003262000834620008366200083862000845
:101F20003A6200083C6200086862000869620008C2
:101F30006A6200086C6200086E6200086F62000846
:101F4000706200087262000874620008766200081D
:101F5000786200087A6200087C620008AC620008BF
:101F6000AD620008AE620008AF620008B06200080F
:101F7000B2620008B4620008DC620008DD6200089A
:101F8000DE620008DF620008E0620008E26200082A
:101F9000E4620008E8620008E9620008EA620008FA
:101FA000EB620008EC620008ED620008EE620008D7
:101FB000EF620008F0620008F2620008F3620008B5
:101FC000F4620008F6620008F8620008F96200088E
:101FD000FC620008306300083163000832630008C7
:101FE00034630008366300080021034A1160034A85
:101FF00011800180704700007400002078000020EC
:102000002DE9F04F85B00446894692469B46DDF89F
:1020100038800020009000BF00BFFEF797F80090C6
:1020200000BF00BFBAF1000F0AD0BAF1010F0DD006
:10203000BAF5004F05D06FF40040504460B906E097
:1020400000BF206A40EA0900206214E000BF206A55
:1020500020EA090020620EE000BF00BF0098FEF7F2
:1020600079F800BF00BF45F62560A8F80000002001
:1020700005B0BDE8F08F00BFC4F824B004F108003B
:1020800001900198008958B900BF00BF0098FEF781
:1020900061F800BF00BF0020A8F80000206AE7E751
:1020A00000BF61480078401C5F49087000BF00BF56
:1020B0000098FEF74FF800BF00BF00BF0198076807
:1020C000BD687FE07868029095F8880000F00F0006
:1020D00003900398012821D002282ED0042802D092
:1020E000082836D10EE0206AD5F8801000EA0106F3
:1020F000D5F88000B04204D15A463146284600F057
:1021000097F859E0206AD5F8801000EA010626B158
:102110005A463146284600F08BF84DE0D5F880004D
:10212000216A20EA0106D5F88000B04204D15A465F
:102130003146284600F07CF83EE0D5F88000216A60
:1021400020EA010626B15A463146284600F070F8CA
:1021500032E000BF00BF00BFFDF7F8FF009000BFF6
:1021600000BF31480078401E2F49087008460078AB
:10217000A0B92E480088002809DD00BF00BF0098E4
:10218000FDF7E8FF00BF00BF00F032FF0DE000BF29
:1021900000BF0098FDF7DEFF00BF06E000BF00BFF4
:1021A0000098FDF7D7FF00BF00BF00BF43F6FF2038
:1021B000A8F8000000205BE700BF029F0FB1BD68D8
:1021C00000E00025002D7FF47DAF00BF00BF00BF01
:1021D000FDF7BCFF009000BF00BF13480078401E11
:1021E0001149087000BF00BF0098FDF7B3FF00BFA2
:1021F00000BF00BF0AF4004008B9FEF7E1FC00BFD1
:1022000000BFFDF7A3FF009000BF00BF206A04904D
:1022100000BF00BF0098FDF79DFF00BF00BF00207A
:10222000A8F80000049823E7A4000020680000201C
:1022300070B504460E46154634342665002060709D
:102240002070E560A078343C082816D2DFE800F062
:10225000040508090706101100BF00BF00BF0DE00C
:1022600000BF204601F028FC002084F8360005E07D
:1022700000BF042084F8360000E000BF00BF204605
:1022800000F05BFC70BD0000002400BF19E000BF3F
:1022900000BFFDF75BFF044600BF00BF09480068B0
:1022A000401C0849086008480068401C064908604E
:1022B00000BF00BF2046FDF74DFF00BF00BFFEF787
:1022C0000BFBE4E758000020BC00002010B58AB0EA
:1022D000044600200E4908600B2000210591CDE93D
:1022E0000704069108460B4909680B4A12680B4B14
:1022F0001B68CDE90132CDE903103F200023084AD5
:1023000008A100900C48FEF7B7FE0AB010BD00000F
:102310005800002034610008306100082C6100087A
:102320008922000875432F4F532D4949492049649C
:102330006C65205461736B003C7C00202DE9F84FE4
:1023400004460D4616461F46DDE90BABDDF8289026
:10235000DDF834800020009000BF00BFFDF7F6FEDE
:10236000009000BF00BF2B4800882B490988884295
:102370003EDA28480088401C264908802748008803
:102380000988884203DA23480088244908802448C1
:102390000068046022480068856021480068C660C3
:1023A0001F48006807821E480068C0F814901C4847
:1023B0000068A0F818A01A480068C0F81CB01848B7
:1023C00000684068164908600120164908811648CF
:1023D00008604860002000F07FFC1448007818B1C5
:1023E00012480078124908700020A8F8000008E0A0
:1023F00010480088401C0F49088044F25360A8F838
:10240000000000BF00BF0098FDF7A4FE00BF00BFA2
:10241000BDE8F88F68000020406100086A000020D5
:1024200060000020D07D0020007D00208A00002078
:102430008C0000206C0000203EB559480068006800
:10244000584A811A904279D00FDC57490844002835
:102450003ED056490844A8B155490844002860D0E8
:102460005449084400286AD13FE0534808440028F2
:1024700050D052490844002862D0514908440028ED
:10248000F1D110E002A8464D00902D68EB69444D53
:102490002D682A8B424D2D686969414D2D68A868C9
:1024A000FFF7AEFD7AE002A93D480068C0693C4DE7
:1024B000CDE900012D682B8B394D2D682A8A384DC6
:1024C0002D68E968364D2D68A86800F035FC65E098
:1024D000334B1B68DA69324B1B68198B304B1B6816
:1024E000986802AB00F052FE58E002A92C48006840
:1024F000C0692B4DCDE900012D682B8B284D2D682F
:102500002A8A274D2D68E968254D2D68A86801F0B5
:10251000CDF943E022490968886802A901F0DAFA96
:102520003CE01F4B1B68DA691D4B1B68198B1C4B69
:102530001B68986802AB01F079FB2FE007E02CE004
:1025400017490968886802A901F0D2FD26E01D49F3
:10255000097801EB41011C4A02EB810000F0A2FD69
:102560000F48006802AB0021C269184801F05EFB09
:1025700017480068401E164908600846006858B9A8
:10258000144800680860FDF7F7FF044602AB2246D6
:102590000021114801F04AFB00E000BF00BF3EBD32
:1025A000640000205449434BADBAB2BE0DF90BFA9A
:1025B000F2F8F7FF0006F6FF00F7FDF700FFEFFF68
:1025C00003FE0FFE8C000020D07D002094810020AF
:1025D000F8000020F400002058820020002700BFEF
:1025E0004CE0002648E000BF00BFFDF7AFFD074606
:1025F00000BF00BF2248008888B900202149088117
:102600000860486000F07AFB00BF00BF3846FDF765
:10261000A1FD00BF00BFFEF7D3FA01262CE000BFEA
:1026200000BF3846FDF796FD00BF00BFFDF7A4FFD1
:102630000546FFF701FFFDF79FFF441B12480068A6
:10264000A04201D21048046000BF00BFFDF77EFD2C
:10265000074600BF00BF0D48006840680B4908608E
:1026600007480088401E0649088000BF00BF384662
:10267000FDF770FD00BF00BF002EB4D0B1E7000031
:1026800068000020D07D0020700000206400002041
:10269000F0B589B00546002031490880314800680E
:1026A00020B944F25260288009B0F0BD2E4800885D
:1026B000022803DA44F254602880F5E700202B4911
:1026C0000860284804682646203600270CE0284881
:1026D00020600020A060E06020826061208366604E
:1026E00020342036781C87B21F4800888742EEDBF2
:1026F000203C1C48066866601E4806601E4806604E
:1027000000201E4908801E4908801E48006818B92C
:1027100044F255602880C7E71B4800681B490968D8
:10272000884203D244F256602880BDE7032000218E
:102730000591CDE90705069113480068144A12680F
:10274000104B1B68CDE90301CDE9013200910B4626
:10275000104A11A11748FEF78FFC00BFA4E7000044
:102760006C0000203C6100084061000870000020FF
:102770004E4F4E456000002064000020680000209D
:102780006A00002048610008506100088861000864
:102790004C610008DD25000875432F4F532D494932
:1027A0004920495352205175657565205461736BFA
:1027B00000000000007D00200021034A1160034A50
:1027C00011800180704700007C0000208000002004
:1027D00070B502460B461046114610315E1EB5B26A
:1027E000002408E00160002646600681C6601030C3
:1027F0001031661CB4B2AC42F4DB002606604660C1
:102800000681C66070BD000010B50446104800681F
:1028100018B945F21E70208010BD0E48008818B906
:1028200045F21D702080F7E70A48018808480068D3
:10283000FFF7CEFF06480068074908600548008892
:1028400088800020C8800881208000BFE4E7000065
:102850006C61000864610008C47D002010B5014669
:1028600048894B89002B17DD0A680C4B1B681360E5
:102870000A4C4B6823602346DB884C891B1B074CA2
:10288000E38023469B884C892344044CA380002387
:102890004B818B810B604B6010BD0000C47D00201C
:1028A0000181002242818281026042607047000003
:1028B0002DE9F0410D46DDE90674B0F80AC0B0F824
:1028C0000880C44505DB46F2935CA4F800C0BDE86F
:1028D000F081DFF8D4C0BCF804C0BCF1000F04D113
:1028E00045F21D7CA4F800C0F1E7DFF8BCC0DCF8BD
:1028F0000010DFF8B480D1F800C0C8F800C0C446AA
:10290000BCF804C0ACF1010CA8F804C0C446BCF883
:1029100006C00CF1010CA8F806C0C446BCF808C0FB
:10292000B8F80680C44507DADFF87CC0BCF806C0FA
:10293000DFF87480A8F808C0B0F80AC0BCF1000F36
:1029400006D1016041604FF0010CA0F80AC017E009
:1029500003F0100CBCF1000F07D1066831604FF096
:10296000000CC1F800C0016004E0D0F804C0C1F858
:1029700000C04160B0F80AC00CF1010CA0F80AC018
:10298000B0F80CC0B0F80A80C44503DAB0F80AC049
:10299000A0F80CC04D600A81CF604FF0000CA4F885
:1029A00000C000BF93E70000C47D00200021034A5F
:1029B0001160034A118001807047000084000020EC
:1029C000880000202DE9F04105460C4616461F46BA
:1029D0001548006880F8346000201349096881F8C0
:1029E000350039461048006800F096FE6CB104F1DD
:1029F0000808EC60012229460B48006800F016F830
:102A00002946404600F066F806E0002006490968BD
:102A1000C88705490968086303480168204600F033
:102A200019F8BDE8F0810000FC00002010B5C28755
:102A3000016300230AE000244C600C600C614C61CF
:102A40000C83CC61886020315C1CA3B29342F2DB22
:102A500010BD000030B548B14568C1F8C05000F164
:102A60000804226893681D6AC56113E091F8345028
:102A7000022D02D0072D08D103E007A5C1F8C050F0
:102A800007E007A5C1F8C05003E008A5C1F8C05091
:102A900000BF00BF30BD00005461736B20510000C7
:102AA0005461736B2053656D00000000200000002E
:102AB00030B507A5C1F8C05000F1080422681AB16A
:102AC00093681D6AC56101E001A5C56130BD0000C4
:102AD00020000000F0B58E6896F8375007893FB99E
:102AE0000127078100274F600F600160416023E0EC
:102AF00007897F1C0781026806E0946894F83770A4
:102B0000AF4200DD02E05268002AF6D100BF32B9C0
:102B100000274F6043680B60596041600CE0176804
:102B20002FB9116000270F604A60016004E013684C
:102B30000B604A6059601160F0BD2DE9F041044618
:102B4000256BE68F0AE0D5F80C8008F108072946C6
:102B5000384600F00AF82035701E86B2002EF2DCEE
:102B60000020E0872063BDE8F08110B50489012CC6
:102B700003D100240460446011E00C6824B94A6861
:102B80000024146002600AE04C6824B90B68002439
:102B90005C60436003E00B684A685A601360048914
:102BA000641E048100244C600C6010BD2DE9F843C4
:102BB00006460C4617469846089D94F836000828A5
:102BC00050D2DFE800F00405080906072B2C00BFEF
:102BD00000BF00BF47E000BF94F83400032807D1CE
:102BE00043463A4621463046009500F03FF803E060
:102BF000E765A4F86080256436B12046FFF79DFFA5
:102C000021463046FFF754FF204600F055FF0020D4
:102C10003434A070607004F8340924E000BF94F8E4
:102C20003400032807D143463A46214630460095F2
:102C300000F01CF803E0E765A4F8608025642046F6
:102C400001F0F0FB36B12046FFF777FF2146304612
:102C5000FFF72EFF04203434A0700020607004F8C9
:102C6000340900E000BF00BFBDE8F883F0B50446BA
:102C7000059E086BCD8F0AE0C768A74204D10461A6
:102C800042610383C66104E020306F1EBDB2002D97
:102C9000F2DC00BFF0BD000070B50025074C03E07A
:102CA00005F12000C5B2241D20680028F8D0206856
:102CB000FDF757FA2844C5B2284670BD34000020FD
:102CC000002004E00021034A42F82010401C0228A2
:102CD000F8D370473400002030B5420900F01F03DC
:102CE0000121C3F11F04A140034C54F822400C43BE
:102CF000014D45F8224030BD3400002030B5420976
:102D000000F01F030121C3F11F04A140034C54F83C
:102D100022408C43014D45F8224030BD3400002054
:102D20000021034A1160034A1180018070470000AE
:102D300090000020940000202DE9F04F85B0074658
:102D40008A4693461C460020029000BF00BF00BF89
:102D5000FDF7FCF9029000BF00BF48480078401C16
:102D60004649087000BF00BF0298FDF7F3F900BFA5
:102D700000BF00BF07F108063089002842D104F0E7
:102D8000100010B94FF0000801E04FF01008DDE925
:102D90000E0143465A46CDE90001514607F1200095
:102DA000FFF786FD00BF00BF00BFFDF7CFF902901F
:102DB00000BF00BF31480078401E30490870084607
:102DC0000078A0B92E480088002809DD00BF00BFA8
:102DD0000298FDF7BFF900BF00BF00F009F90DE050
:102DE00000BF00BF0298FDF7B5F900BF06E000BFC5
:102DF00000BF0298FDF7AEF900BF00BF00BF05B0ED
:102E0000BDE8F08F04F4007008B1358900E00125B9
:102E1000D6F8009011E0D9F808000390D9F8040022
:102E200004900E985B465246009038460399FFF78F
:102E3000BDFEDDF81090681E85B2002DEBD100BFFD
:102E400000BF00BFFDF782F9029000BF00BF0B4832
:102E50000078401E0949087000BF00BF0298FDF7C6
:102E600079F900BF00BF00BF04F4004008B9FDF7C6
:102E7000A7FE00210F98018000BFC0E7A40000203A
:102E80006800002000210AE001EB4102054B03EB42
:102E9000820000220281026042604A1CD1B24029B5
:102EA000F2D37047D07D002010B5044694F8370067
:102EB000FFF712FF94F8370005490978884203D1DB
:102EC000204600F027F802E0204600F003F810BD8D
:102ED0008A00002010B590F8373003EB43030C4C08
:102EE00004EB83010B893BB901230B810023C360F1
:102EF00003610860486009E00B895B1C0B810B686B
:102F0000C360002303610A681061086010BD0000FF
:102F1000D07D002010B590F8373003EB43030B4C05
:102F200004EB83010B893BB901230B810023C360B0
:102F300003610860486008E00B895B1C0B8100237B
:102F4000C3604A680261D060486010BDD07D002037
:102F500010B501460C8924B1012C03D0022C0CD1F0
:102F600001E000BF14E008684A6802610024C46000
:102F70001461D0600A6048600AE008684A68C36863
:102F800000241C61C4600261D0600B60486000BF17
:102F900000BF10BD2DE9F041054695F8370000EB64
:102FA0004000124901EB80042F69EE6887B946B9E9
:102FB000002020812060606095F83700FFF79EFEBA
:102FC0000EE02089401E208100203061266007E04D
:102FD0002089401E2081FE600EB9676000E03761E5
:102FE00000202861E860BDE8F0810000D07D00206D
:102FF00010B5002400BFFDF7A9F8044600BF00206B
:103000000D4908700D480E49086008460068D0F860
:103010009000401C0968C1F890000A480068401CF4
:10302000084908604FF080500749086000BF2046FB
:10303000FDF790F800BF10BD8B000020007D002040
:1030400000010020D000002004ED00E010B504488D
:103050000078012803D1FDF78FFA0249086010BDFE
:10306000A40000209800002010B50A48007880B91C
:10307000FDF782FA08490968441A08480068A04226
:1030800001D20648046006480068A04201D2044804
:10309000046010BDA4000020980000209C000020C7
:1030A000A000002070B5054600262E4800780128B3
:1030B00000D070BD00BF00BFFDF748F8064600BF56
:1030C00000BF2C683CB900BF00BF3046FDF742F896
:1030D00000BF00BFEDE72448844207D100BF00BF16
:1030E0003046FDF737F800BF00BFE2E7A06D10B132
:1030F000A06D401EA065A06D38B100BF00BF304676
:10310000FDF728F800BF00BFD3E72889022807DAB7
:1031100000BF00BF3046FDF71DF800BF00BFC8E785
:1031200012480078002807DD00BF00BF3046FDF7D9
:1031300011F800BF00BFBCE72846FFF709FF2C6865
:10314000606D18B90A480068A06501E0606DA0656F
:1031500000BF00BF3046FCF7FDFF00BF00BF00BF4F
:10316000A7E70000AC0000203C7C0020A400002069
:10317000A80000200021034A1160034A1180018049
:1031800070470000B0000020B40000202DE9FF5F70
:103190000446884691461D460020019000BF00BFAE
:1031A000FCF7D4FF019000BF00BF04F10807388985
:1031B00000284FD10420012804D0022814D004286C
:1031C00034D123E0206AFF280DD100BF00BF019851
:1031D000FCF7C0FF00BF00BF46F6C55028800020A6
:1031E00004B0BDE8F09F22E04FF6FF71206A8842EC
:1031F0000BD100BF00BF0198FCF7ACFF00BF00BFC0
:1032000046F6C55028800020EAE710E0206A401CFE
:1032100058B900BF00BF0198FCF79CFF00BF00BF7A
:1032200046F6C55028800020DAE700E000BF00BF66
:10323000206A401C2062D4F820A0C4F8249000BF6B
:1032400000BF0198FCF786FF00BF00BF0020288068
:103250005046C5E700BF25480078401C2349087048
:1032600000BF00BF0198FCF775FF00BF00BF00BFA3
:1032700008F4007008B13E8900E00126D7F800B0DC
:1032800011E0DBF808000290DBF804000390002353
:103290001A46CDF8009020460299FFF787FCDDF82A
:1032A0000CB0701E86B2002EEBD1D4F820A000BF67
:1032B00000BF00BFFCF74AFF019000BF00BF0B48F2
:1032C0000078401E0949087000BF00BF0198FCF754
:1032D00041FF00BF00BF00BF08F4004008B9FDF780
:1032E0006FFC0020288050467AE70000A4000020F0
:1032F00086B00020009000BF06E0C349096848007E
:1033000001AA0021FEF7E8FBC04800780128F4D1AB
:1033100001A8FDF793FD0027BD480068BA49096878
:10332000884205D9BA480068B7490968B0FBF1F787
:1033300027B9B74800680A21B0FBF1F762E1FDF751
:103340001BF9804600BF00BFFCF700FF009000BFE4
:1033500000BFB0480068B04908600020AD4908606F
:1033600000BF00BF0098FCF7F5FE00BF00BFAB48F0
:103370000068A9490968884248D9A8480068A8494E
:10338000884205D242F2107003900120029023E09F
:10339000A2480068A349884205D24FF47A7003908E
:1033A0000A20029018E09D4800689F49884203D295
:1033B0006420039002900FE0984800689B4988427F
:1033C00005D20A2003904FF47A70029004E00120A5
:1033D000039042F210700290904801680298B1FB8D
:1033E000F0FA8D49039809684843B0FBFAF042F2BD
:1033F0001071081A8E4908808E4800880988884212
:1034000008DA8B4800888B49088003E042F210708C
:1034100087490880FDF726FE002500BF00BFFCF7A6
:1034200095FE009000BF00BF8348046800BF00BF46
:103430000098FCF78FFE00BF00BF5AE000BF00BF3E
:1034400000BFFCF783FE009000BF00BF7B48007800
:10345000401C7A49087000BF00BF0098FCF77AFE54
:1034600000BF00BF00BF54F89C0F6060002044F80C
:103470009C0900BF00BF00BFFCF768FE009000BFC2
:1034800000BF6E480078401E6C49087008460078FE
:10349000A0B96B480088002809DD00BF00BF009874
:1034A000FCF758FE00BF00BFFFF7A2FD0DE000BF14
:1034B00000BF0098FCF74EFE00BF06E000BF00BF53
:1034C0000098FCF747FE00BF00BF00BFD4F8A00083
:1034D000054400BF00BFFCF739FE009000BF00BFED
:1034E000D4F8BC4000BF00BF0098FCF733FE00BF1B
:1034F00000BF002CA2D145B34948854205D242F213
:10350000107005904FF0010B1BE04648854205D234
:103510004FF47A7005904FF00A0B12E04248854252
:1035200003D26420059083460BE04048854204D2D4
:103530000A2005904FF47A7B03E00120059042F2C7
:10354000107BB5FBFBF0049003E000200590012008
:10355000049000BF00BFFCF7F9FD009000BF00BF62
:103560003548046800BF00BF0098FCF7F3FD00BFBA
:1035700000BF2BE0D4F8A000059948430499B0FBA4
:10358000F1F086B242F21070864200D90646A4F8E5
:103590008C60B4F88E00B04201DAA4F88E6001AB02
:1035A00004F1AC02111D2046FEF7E2F800BF00BF97
:1035B000FCF7CCFD009000BF00BFD4F8BC4000BFBA
:1035C00000BF0098FCF7C6FD00BF00BF002CD1D1A2
:1035D0001C480078012805D100201A49087001A86C
:1035E000FDF72CFCFCF7C8FFA0EB080916480068A3
:1035F000484502D21448C0F8009001AA002138467C
:10360000FEF76AFA9BE6000074610008C80000201B
:103610008C610008BC000020C4000020C000002015
:10362000801A060000093D00005A62020084D71784
:10363000B8000020BA000020D4000020A400002020
:1036400068000020B6000020CC00002010B58AB031
:10365000044600201F4908601F4908601F49086090
:103660001F4908701F4908701F48006820B946F6B6
:103670002B6020800AB010BD1C4800681C490968F6
:10368000884203D246F62C602080F3E71948007880
:103690003F2803D346F62A602080EBE70320002171
:1036A0000591CDE907040691084610490968124AB8
:1036B00012680D4B1B68CDE90132CDE903100D48AE
:1036C000007800230D4A0EA100901248FDF7D4FCAB
:1036D00000BFCFE7BC000020C4000020C0000020D5
:1036E000C8000020B6000020786100088061000852
:1036F00088610008706100087C610008F1320008F0
:1037000075432F4F532D49494920537461742054F8
:1037100061736B00D080002038B504460D4685B13A
:103720006B4602222946204600F09EFDBDF80000AF
:1037300018B9032084F8360006E0022084F8360029
:1037400002E0022084F836002046FFF723FC38BD53
:103750000021C0F8B8100949096819B90021C0F85A
:10376000BC1007E005490968C0F8BC1003490968A6
:10377000C1F8B8000149086070470000D40000207B
:10378000D0F8B820D0F8BC104AB90D4B196011B16F
:103790000023C1F8B8300023C0F8BC300FE029B9CD
:1037A0000023C2F8BC30C0F8B83008E0C2F8BC1042
:1037B000C1F8B8200023C0F8BC30C0F8B83070475A
:1037C000D40000200021044A1160044A1180044AF8
:1037D0001160018070470000D4000020D800002054
:1037E000D000002070B5044600202060A06060601A
:1037F000E06020616061A061E06129A0206200209A
:103800006062A062E0622064E065A4F860000021CC
:1038100004F16400FFF744F8002044F8740F60607E
:10382000E060A0822061743C002506E0002104F1E4
:103830007C0040F82510681CC5B2002DF6D0002091
:103840003434206120676067606084F85600E06768
:10385000A06720814FF0004060610020A061E0611E
:1038600020626062A4F85800A4F85A00E06520665F
:10387000FCF782FE064666660020A066C4F880005B
:1038800020706070A0704020E0700020C4F88400B8
:10389000C4F8880004A0C4F88C00343C70BD00005B
:1038A0003F5461736B000000200000002DE9FC47CD
:1038B00004460F4690469946DDE90A654FF0000A36
:1038C00000BF00BF00BFFCF741FC824600BF00BF45
:1038D00076480078401C7549087000BF00BF50460C
:1038E000FCF738FC00BF00BF00BF0CB9704804688B
:1038F0000020288094F8360008287DD2DFE800F008
:1039000004053E3F0607404100BF00BF00BF4B46D5
:103910004246394604F16400CDE90065FEF7C8FF70
:1039200000BF00BF00BFFCF711FC824600BF00BF14
:103930005E480078401E5D49087008460078A0B9CE
:103940005C480088002809DD00BF00BF5046FCF736
:1039500001FC00BF00BFFFF74BFB0DE000BF00BF45
:103960005046FCF7F7FB00BF06E000BF00BF504623
:10397000FCF7F0FB00BF00BF00BF93E000BF00BF3B
:1039800000BF94F83400022821D143463A4621462C
:1039900000200096FFF70AF900BF00BF00BFFCF748
:1039A000D5FB824600BF00BF40480078401E3F491B
:1039B000087000BF00BF5046FCF7CCFB00BF00BF43
:1039C00000BF09F4004090BBFDF7FAF838E04B4621
:1039D0004246394604F16400CDE90065FEF768FF10
:1039E00000BF00BF00BFFCF7B1FB824600BF00BFB5
:1039F0002E480078401E00E023E02C49087008465D
:103A00000078A8B92B480088002809DD00BF00BF56
:103A10005046FCF79FFB00BF00BFFFF7E9FA0EE03E
:103A200000BF00BF5046FCF795FB00BF07E007E072
:103A300000BF00BF5046FCF78DFB00BF00BF00BFBA
:103A400030E000BF00BF00BFFCF780FB824600BF34
:103A500000BF16480078401E1449087008460078D8
:103A6000A0B914480088002809DD00BF00BF5046F7
:103A7000FCF770FB00BF00BFFFF7BAFA0DE000BF14
:103A800000BF5046FCF766FB00BF06E000BF00BF6A
:103A90005046FCF75FFB00BF00BF00BF46F62D603D
:103AA000288000BF00BFBDE8FC870000A400002004
:103AB000FC0000206800002010B50446204600F0FD
:103AC000B1FC94F8360000F0040010B92046FFF76E
:103AD000EBF910BD70B504460D46002600BF00BFCF
:103AE000FCF734FB064600BF00BF0020288094F896
:103AF000360008287BD2DFE800F0040506071243F1
:103B0000556700BF00BF00BF00BF00BF3046FCF7D5
:103B100021FB00BF00BF47F25310288072E000BFB6
:103B20003B480078401C3A49087000BF00BF30464F
:103B3000FCF710FB00BF00BF00BF14F88A0F401E47
:103B4000207014F88A0928B9002084F8360020462D
:103B5000FFF7B2FF00BF00BF00BFFCF7F7FA064651
:103B600000BF00BF2A480078401E2949087000BFE6
:103B700000BF3046FCF7EEFA00BF00BF00BF41E0D7
:103B800014F88A0F401E207014F88A0910B9012019
:103B900084F8360000BF00BF3046FCF7DBFA00BFF8
:103BA00000BF2FE014F88A0F401E207014F88A0915
:103BB00010B9022084F8360000BF00BF3046FCF781
:103BC000C9FA00BF00BF1DE014F88A0F401E207024
:103BD00014F88A0910B9032084F8360000BF00BF2A
:103BE0003046FCF7B7FA00BF00BF0BE0FFE700BFAD
:103BF00000BF3046FCF7AEFA00BF00BF46F62D60AE
:103C0000288070BD00BFFCF7DBFF00BFF9E70000B4
:103C1000A400002008B504480068FDF793FC69463D
:103C20000020FDF763FB08BDFC0000202DE9F843F0
:103C30000446884617461D464FF0000900BF00BFE6
:103C400000BFFCF783FA814600BF00BFFE48007842
:103C5000401CFD49087000BF00BF4846FCF77AFAD7
:103C600000BF00BF00BF0CB9F848046827640020FB
:103C7000288094F83600082871D2DFE800F00405A7
:103C8000EBEC0607EDEE00BF00BF00BF04200128EB
:103C900004D0022839D004286FD170E0606CFF286E
:103CA00032D100BF00BF00BFFCF750FA814600BF11
:103CB00000BFE5480078401EE349087008460078D8
:103CC000A0B9E3480088002809DD00BF00BF4846CE
:103CD000FCF740FA00BF00BFFFF78AF90DE000BF14
:103CE00000BF4846FCF736FA00BF06E000BF00BF41
:103CF0004846FCF72FFA00BF00BF00BF46F6C5508C
:103D000028800020BDE8F88371E04FF6FF71606CF9
:103D1000884233D100BF00BF00BFFCF717FA8146CD
:103D200000BF00BFC8480078401EC7490870084659
:103D30000078A8B9C6480088002809DD00BF00BF88
:103D40004846FCF707FA00BF00BFFFF751F90EE045
:103D500000BF00BF4846FCF7FDF900BF07E08DE15A
:103D600000BF00BF4846FCF7F5F900BF00BF00BF29
:103D700046F6C55028800020C4E737E037E0606C85
:103D8000401C88BB00BF00BF00BFFCF7DFF98146C5
:103D900000BF00BFAC480078401EAB490870084621
:103DA0000078A0B9AA480088002809DD00BF00BF3C
:103DB0004846FCF7CFF900BF00BFFFF719F90DE047
:103DC00000BF00BF4846FCF7C5F900BF06E000BFD2
:103DD00000BF4846FCF7BEF900BF00BF00BF46F673
:103DE000C550288000208DE7FFE700E000BF00BF3E
:103DF000606C401C6064666C00BF00BF00BFFCF7D5
:103E0000A5F9814600BF00BF8F480078401E8E494B
:103E1000087008460078A0B98D480088002809DDA0
:103E200000BF00BF4846FCF795F900BF00BFFFF791
:103E3000DFF80DE000BF00BF4846FCF78BF900BF7C
:103E400006E000BF00BF4846FCF784F900BF00BF92
:103E500000BF45E100BF00BF00BF94F83400072851
:103E600023D100231A46214618460097FEF79EFEEE
:103E7000666C00BF00BF00BFFCF768F9814600BF59
:103E800000BF71480078401E6F49087000BF00BF36
:103E90004846FCF75FF900BF00BF00BF08F40040D0
:103EA000002801D1FCF78CFEE7E00420012804D0B3
:103EB000022838D004286ED16EE0606CFF2831D122
:103EC00000BF00BF00BFFCF741F9814600BF00BF43
:103ED0005D480078401E5C49087008460078A0B92B
:103EE0005B480088002809DD00BF00BF4846FCF79A
:103EF00031F900BF00BFFFF77BF80DE000BF00BF46
:103F00004846FCF727F900BF06E000BF00BF48465F
:103F1000FCF720F900BF00BF00BF46F6C55028805F
:103F20000020EFE670E04FF6FF71606C884231D1FF
:103F300000BF00BF00BFFCF709F9814600BF00BF0A
:103F400041480078401E4049087008460078A0B9F2
:103F50003F480088002809DD00BF00BF4846FCF745
:103F6000F9F800BF00BFFFF743F80DE000BF00BF46
:103F70004846FCF7EFF800BF06E000BF00BF484628
:103F8000FCF7E8F800BF00BF00BF46F6C550288028
:103F90000020B7E638E036E0606C401C88BB00BF0C
:103FA00000BF00BFFCF7D2F8814600BF00BF264823
:103FB0000078401E2449087008460078A0B92448BB
:103FC0000088002809DD00BF00BF4846FCF7C2F8A2
:103FD00000BF00BFFFF70CF80DE000BF00BF484670
:103FE000FCF7B8F800BF06E000BF00BF4846FCF78A
:103FF000B1F800BF00BF00BF46F6C55028800020C2
:1040000080E6FFE700E000BF00BF606C401C60641A
:10401000666C00BF00BF00BFFCF798F8814600BF88
:1040200000BF09480078401E07490870084600781C
:10403000D8B907480088002810DD00BF00BF4846F7
:10404000FCF788F800BF05E0A4000020FC00002079
:104050006800002000BFFEF7CBFF0DE000BF00BFEF
:104060004846FCF777F800BF06E000BF00BF4846AF
:10407000FCF770F800BF00BF00BF31E000BF00BF19
:1040800000BFFCF763F8814600BF00BF1648007808
:10409000401E1549087008460078A0B913480088EA
:1040A000002809DD00BF00BF4846FCF753F800BFF9
:1040B00000BFFEF79DFF0DE000BF00BF4846FCF7C4
:1040C00049F800BF06E000BF00BF4846FCF742F8D1
:1040D00000BF00BF00BF46F62D602880002600BF4D
:1040E00000BF30460EE60000A4000020680000205B
:1040F00070B504460D46002600BF00BFFCF726F849
:10410000064600BF00BF0CB94B4804684A48006827
:1041100084420ED14948007800280ADD00BF00BF64
:104120003046FCF717F800BF00BF46F66350288002
:1041300070BD0020288094F8360008286CD2DFE893
:1041400000F004313F4D5B5C5D5E00BF3B48007892
:10415000401C3A49087000BF00BF3046FBF7FAFF29
:1041600000BF00BF00BF042084F83600012084F89F
:104170008A002046FEF70EFF00BF00BF00BFFBF71E
:10418000E5FF064600BF00BF2C480078401E2B49C3
:10419000087000BF00BF3046FBF7DCFF00BF00BF68
:1041A00000BF44E0052084F83600012084F88A002E
:1041B00000BF00BF3046FBF7CDFF00BF00BF36E0B9
:1041C000062084F83600012084F88A0000BF00BF72
:1041D0003046FBF7BFFF00BF00BF28E0072084F890
:1041E0003600012084F88A0000BF00BF3046FBF78C
:1041F000B1FF00BF00BF1AE000BF00BF00BF94F8CE
:104200008A00401C84F88A0000BF00BF3046FBF7DC
:10421000A1FF00BF00BF0AE000BF00BF3046FBF7B0
:1042200099FF00BF00BF46F62D60288080E700BFE1
:10423000FCF7C6FC00BF7BE7FC000020A4000020C8
:10424000002108E0064A02EBC100002202608280E1
:10425000C2804A1C91B2034A12889142F2DB704735
:104260002C790020A46100082DE9F04F0C46164679
:104270001D46042E1ED1DFF8A091D9F80090A4EBC2
:104280000909A9F1010313F5803F0DD94FF0000989
:10429000C0F84C90C0F85090C0F81C9047F27E29AE
:1042A000A5F80090BDE8F08FC46403F10109C0F8DF
:1042B00050903FE084B3082E25D1D0F8489009EB08
:1042C0000407DFF85491D9F80090A7EB0909A9F188
:1042D0000103A34201D2C76406E0DFF83C91D9F89C
:1042E0000090A144C0F84C90DFF82CA1D0F84C907D
:1042F000DAF800A0A9EB0A09C0F85090D0F84C9069
:10430000C0F8489016E0DFF81091D9F80090A14469
:10431000C0F84C9004650DE0FFE74FF00009C0F8CD
:104320004C90C0F85090C0F81C9047F27E29A5F838
:104330000090B7E7DFF8E4A0BAF800A0D0F84C90FE
:10434000B9FBFAFB0AFB1B991FFA89F8DFF8D0903A
:1043500009EBC802B2F80490B9F1000F0BD14FF08D
:104360000009C0F81490C0F8189010604FF00109CF
:10437000A2F804903EE0116834E0DFF89CA0D1F888
:104380004C90DAF800A0A9EB0A09C1F85090D0F8D7
:104390005090D1F850A0D1450ED9D1F81490B9F170
:1043A000000F01D049691DE04FF00009C0F81490DA
:1043B00081614861002115E0D1F81890B9F1000F32
:1043C00007D14FF00009C0F8189041618861106072
:1043D00007E0D1F818C0C0F818C04161CCF814004B
:1043E000886100210029C8D1B2F8049009F10109BF
:1043F000A2F80490B2F80690B2F804A0D14503DA0E
:10440000B2F80490A2F80690C2614FF00009A5F836
:10441000009000BF46E70000DC000020A461000817
:104420002C79002010B5C269BAB100240465146863
:10443000844205D14169116039B100248C6104E0E6
:10444000816943694B6103B19961002444618461CE
:10445000C461C4649488641E948010BD002006E08A
:10446000054A02EBC0010022CA80421C90B2034AF6
:1044700012889042F4DB70472C790020A461000878
:104480002DE9F05F4FF0000B00BF00BF00BFFBF74E
:104490005DFE834600BF00BF71480078401C704934
:1044A000087000BF00BF5846FBF754FE00BF00BFB6
:1044B00000BFFCF761F805466A480068401C69497E
:1044C00008600846006868490988B0FBF1F201FB02
:1044D00012001FFA80FA654800EBCA08D8F80040BD
:1044E000002782E0002C7FD0D4F8149094F8360096
:1044F000082875D2DFE800F00408051B063D0750C8
:1045000000BF00BF00BF6CE05649E06C0968401A6C
:1045100020655449E06C0968884206D1002084F87F
:1045200036002046FFF7C8FA00E0012759E04D4960
:10453000E06C0968401A20654A49E06C09688842C5
:1045400015D10020E065A4F86000FCF715F82064A0
:104550002046FEF7F2FA2046FFF7AEFA0020343488
:10456000A07003206070002004F8340900E00127E7
:1045700037E03C49E06C0968401A20653949E06C35
:104580000968884206D1042084F836002046FFF7E7
:1045900049FF00E0012724E03249E06C0968401A35
:1045A00020653049E06C0968884217D10020E06539
:1045B000A4F86000FBF7E0FF20642046FEF7BDFA98
:1045C0002046FFF72FFF04203434A07003206070D2
:1045D000002004F8340902E006E001E0012700E0D1
:1045E00000BF00BF4C4600E00127002F3FF47AAF28
:1045F000FBF7C2FF461B1E480068B04201D21C48B0
:10460000066000BF00BF00BFFBF7A0FD834600BFF0
:1046100000BF13480078401E114908700846007812
:10462000A0B914480088002809DD00BF00BF584623
:10463000FBF790FD00BF00BFFEF7DAFC0DE000BF06
:1046400000BF5846FBF786FD00BF06E000BF00BF75
:104650005846FBF77FFD00BF00BF00BFBDE8F09FDD
:10466000A4000020DC000020A46100082C790020B8
:10467000E0000020680000201CB500BF0EE001AB88
:104680006A4600210846FCF769FFBDF8040028B916
:1046900003480078012801D1FFF7F2FEEFE70000A0
:1046A0005D00002010B58AB0044600201D49086056
:1046B0001D490860FFF7C4FD1C48006820B947F297
:1046C000122020800AB010BD1948006819490968F5
:1046D000884203D247F213202080F3E7164800787F
:1046E0003F2803D347F211202080EBE70B20002165
:1046F00005910A46CDE9070406910D4800680F4967
:1047000009680A4B1B68CDE90131CDE903020A486B
:10471000007800230A4A0BA100900F48FCF7ACFC7C
:1047200000BFCFE7DC000020E0000020946100081B
:104730009C61000888610008906100089861000889
:104740007946000875432F4F532D49494920546934
:10475000636B205461736B009481002070B58AB044
:1047600004460020314908603148006840B13148B2
:1047700000682F490968B0FBF1F02F49086006E096
:104780002C4800680A21B0FBF1F02B4908602A4848
:1047900000682A4908600020294908602949086002
:1047A000002508E0284800EBC5060020B080F08016
:1047B0003060681C85B2254800888542F2DB2448B9
:1047C000006820B947F2473020800AB070BD214808
:1047D000006821490968884203D247F248302080A6
:1047E000F3E71E4800783F2803D347F24630208085
:1047F000EBE70B2000210591CDE90704069108465F
:1048000014490968164A1268114B1B68CDE9013238
:10481000CDE90310114800780023124A12A100903C
:104820001748FCF729FC00BFCFE70000E400002098
:10483000B06100088C610008F4000020F80000203E
:10484000F0000020EC000020B47B0020C4610008D0
:10485000B4610008BC61000888610008AC61000810
:10486000B86100087949000875432F4F532D494915
:10487000492054696D6572205461736B000000001B
:1048800058820020F0B50C46022680F82A60012CE0
:1048900005D12D4F466A3F683E4486610CE0066AAA
:1048A0002EB9294F466A3F683E44866104E0264F90
:1048B000066A3F683E448661244F3F888669B6FB9E
:1048C000F7FC07FB1C66B5B2214E06EBC502166865
:1048D00036B90026066146611060012696802CE0FC
:1048E000194F86693F68F61BC661116820E0164FB4
:1048F0008E693F68F61BCE61C669CF69BE4209D991
:104900000E690EB1096913E0002606614161086174
:1049100000210DE04E692EB9002646610161486113
:10492000106004E04B694361016118614861002136
:104930000029DCD19688761C9680D6889788BE425E
:1049400001DA9688D680F0BDF0000020C46100082E
:10495000B47B0020002006E0054A02EBC0010022E3
:10496000CA80421C90B2034A12889042F4DB70471E
:10497000B47B0020C46100081CB500BF53E001AB4C
:104980006A4600210846FCF7E9FD01A8FCF76CF92E
:10499000FBF7F2FD064624480068401C22490860E7
:1049A0000846006821490988B0FBF1F201FB1200BA
:1049B0001FFA80FA1E4800EBCA08D8F800404FF0F2
:1049C000000B21E0F4B1D4F810901749A0690968F0
:1049D000884214D1204600F02FF8208D022804D1FF
:1049E00001212046FFF74EFF02E0032084F82A0051
:1049F000A56815B12046E168A8474C4604E04FF091
:104A0000010B01E04FF0010BBBF1000FDAD0FBF717
:104A1000B3FD871B01A8FCF793F906480068B8426C
:104A200001D204480760AAE7F0000020C461000832
:104A3000B47B0020EC000020F0B5114E368885696B
:104A4000B5FBF6F706FB1755ACB20E4D05EBC402ED
:104A50001568854205D10169116039B100254D61A4
:104A600004E0416903690B6103B15961012580F8D4
:104A70002A5000250561456195886D1E9580F0BD21
:104A8000C4610008B47B002029B1064AD269024300
:104A9000044BDA6104E0034AD2698243014BDA61D4
:104AA000704700000010024029B1064A1269024313
:104AB000044B1A6104E0034A12698243014B1A61F4
:104AC000704700000010024029B1064A9269024373
:104AD000044B9A6104E0034A92698243014B9A6154
:104AE000704700000010024029B1064AD268024314
:104AF000044BDA6004E0034AD2688243014BDA6077
:104B0000704700000010024030B500210022002450
:104B100000232D4D6D6805F00C0121B1042905D04D
:104B2000082923D105E0294D056022E0274D0560C5
:104B30001FE0254D6D6805F47012234D6D6805F476
:104B40008034022505EB92421CB9214D5543056086
:104B50000BE01D4D6D6805F400351DB11C4D55432E
:104B6000056002E0194D5543056002E0174D0560F0
:104B700000BF00BF144D6D6805F0F0010909154D27
:104B80006B5C0568DD4045600F4D6D6805F4E061C4
:104B9000090A104D6B5C4568DD4085600A4D6D6803
:104BA00005F46051C90A0B4D6B5C4568DD40C5607A
:104BB000054D6D6805F44041890B074D6B5CC56878
:104BC000B5FBF3F5056130BD0010024000127A001C
:104BD00000093D0004000020140000200EB51AE07A
:104BE00001200D49086002A800214FF4FA730A461B
:104BF000CDE900100846FCF7FBFF00200749C1F88B
:104C0000940102A800214FF4FA730A46CDE900107E
:104C10000846FCF7EDFFE3E7948121420080214242
:104C2000704710B500F002F810BD00000CB5002070
:104C3000019000903348006840F4803031490860AA
:104C400000BF3048006800F4003000900198401C1C
:104C50000190009818B90198B0F5A06FF1D12948DA
:104C6000006800F4003010B10120009001E0002045
:104C700000900098012843D12348006840F01000BC
:104C8000214908600846006820F0030008600846D3
:104C9000006840F0020008601A48406819494860FE
:104CA0000846406848600846406840F480604860B4
:104CB0000846406820F47C1048600846406840F48C
:104CC000E81048600846006840F08070086000BF47
:104CD0000C48006800F000700028F9D009484068CE
:104CE00020F00300074948600846406840F0020091
:104CF000486000BF0348406800F00C000828F9D164
:104D00000CBD0000001002400020024070B50546B6
:104D10000E4635B9E822124912A000F095FE002097
:104D200070BD002413E004EB4400154A52F8201033
:104D30002846FBF78FFA40B904EB4400104901EB19
:104D40008000406830600120EAE7601CC4B204EBD8
:104D500044000B4951F820000028E4D100BFDFE7F0
:104D6000146100082573206C696E653A2564206E15
:104D7000616D65206973206E756C6C200A000000FF
:104D8000F06000082DE9F047ADF5A06D0024002685
:104D90000025A14600BF4AE0B6B98D48005D202835
:104DA0000AD08B48005D38B18948005D0DF29C4106
:104DB0004855681CC5B238E000200DF29C414855AA
:104DC000701CC6B2002530E08148005D2C281BD045
:104DD0007F48005DC0B1632D0DDA7D48015D701E16
:104DE00000EBC00202EB00102DAA02EB800041553F
:104DF000681CC5B219E0314676A000F025FE0020FF
:104E00000DF5A06DBDE8F0870021701E00EBC0021B
:104E100002EB00102DAA02EB80004155701CC6B2B7
:104E200000256B48005D00B903E0601CC4B2802C13
:104E3000B2DB00BF80216648FBF7FAF9002480E06E
:104E400004EBC40000EB04102DA911F82000302859
:104E500008D104EBC40000EB041001EB80004078A3
:104E6000782811D004EBC40000EB04102DA911F830
:104E70002000302817D104EBC40000EB041001EB34
:104E80008000407858280ED104EBC40101EB0411D6
:104E90002DAA02EB8100102206A9FBF7E9F90AA965
:104EA00041F824004BE004EBC40000EB04102DA9F2
:104EB00011F82000222836D1012007A9085504EB5B
:104EC000C40101EB04112DAA02EB8101481CFBF780
:104ED000BAF9A0F1010A04EBC40000EB04102DAAFA
:104EE00002EB8000411C524614A8FBF788F904EB42
:104EF000C40101EB04112DAA02EB8101481CFBF750
:104F0000A2F9401E14A900220A5404EBC40101EBCB
:104F100004112DAA02EB8100642214A9FBF76FF99A
:104F20004FF001090BE004EBC40101EB04112DAAC1
:104F300002EB8100FBF7D4F90AA941F82400601CB8
:104F4000C4B20A2CFFF67CAF28A10DF29C40FBF7FF
:104F500081F908B9022053E726490DF29C40FFF77A
:104F6000D5FE00F0FF08B8F1010F2AD10DF29C41E7
:104F700021A000F069FDB9F1000F13D1DDE9102384
:104F8000DDE91210CDE90223CDE90410DDE90E01BF
:104F9000CDE90001DFF85CC00AA80FC8DCF800C04A
:104FA000E04707463A4639461DA000F04DFD0DF298
:104FB0009C4120A000F048FD28A000F045FD002005
:104FC0001EE70DF29C4127A000F03EFD012017E7EF
:104FD0001001002020706172612025642069732017
:104FE000746F6F206C6F6E67200A000065786974BB
:104FF00000000000000000200A0D5B2020206265F8
:1050000067696E20746F20657865637574652066C6
:10501000756E633A25732020202020205D0A0D0044
:1050200076616C7565203D202564283078256C7884
:10503000290A0D005B202020202020656E6420744A
:105040006F20657865637574652066756E3A2573A3
:105050002020202020205D0A0D0000000D0A2D3E9A
:10506000200000000A0D73796D3A2573206E6F746D
:1050700020666F756E64210A0D00000070B5002572
:1050800045E000F014FA044604B940E0082C0ED0C4
:105090000D2C0CD01B2C0AD0204600F010FA802DCD
:1050A00034D22846691CCDB219490C542EE0082C84
:1050B00006D12DB117A000F0C7FC681EC5B225E0CF
:1050C0000D2C23D11DB914A000F0BEFC1EE0802DD4
:1050D0000FDC0F4800785A2803DC0D48007841287F
:1050E00011DA0B4800787A2803DC09480078612837
:1050F00009DA07480578002509A000F0A5FC06A0FC
:1051000000F0A2FC02E00248007870BD00BFB8E7E2
:1051100010010020082008000D0A2D3E200000008C
:105120000D0A57726F6E6720496E7075742E0000FD
:10513000042808D14FF0E021096941F004014FF043
:10514000E022116107E04FF0E021096921F004013C
:105150004FF0E0221161704710B505480078012832
:1051600005D1FBF7A5FCFCF73BFEFBF7B7FC10BD38
:105170005D00002010B51348006840F0010011499F
:10518000086008464068104908400E4948600846D3
:1051900000680E4908400B4908600846006820F482
:1051A000802008600846406820F4FE0048604FF404
:1051B0001F008860FFF735FD4FF00060044908606C
:1051C00010BD0000001002400000FFF8FFFFF6FED7
:1051D00008ED00E038B50446002500BFFBF780F974
:1051E0006846FBF7C7FE6A4601210846FBF776FDD5
:1051F00000BF00BF00BFFAF7A9FF054600BF00BF10
:1052000020480078401C1F49087000BF00BF284696
:10521000FAF7A0FF00BF00BF00BFFCF7E7FB69463D
:105220001948FEF765FF00BF00BF00BFFAF78EFF09
:10523000054600BF00BF13480078401E11490870A2
:1052400008460078A0B911480088002809DD00BF91
:1052500000BF2846FAF77EFF00BF00BFFDF7C8FE7B
:105260000DE000BF00BF2846FAF774FF00BF06E05C
:1052700000BF00BF2846FAF76DFF00BF00BF00BFA8
:1052800038BD0000A4000020C803002068000020F2
:105290008CB03DE02C25294601A8FAF7C9FF362439
:1052A000A4F13100062830D2DFE800F003070B0F2D
:1052B000131718A000F0C8FB28E01AA000F0C4FBE8
:1052C00024E01CA000F0C0FB20E01DA000F0BCFB0F
:1052D0001CE023A000F0B8FB00BF00F051FE24A0AA
:1052E00000F0B2FB29A000F0AFFB08E0FFF7C6FE1C
:1052F000FFF748FD0646022E00D101E000BFF5E7AA
:1053000000BF23A000F0A0FB00E000BF00BF00BF73
:10531000C0E700000A0D5541525420746573742192
:10532000000000000A0D5246494420746573742140
:10533000000000000A0D4454552074657374210068
:105340000A0D5570646174652056657273696F6EDD
:10535000206E6F7420737570706F7274000000009F
:105360000A0D4F74686572732074657374210000B0
:105370000A0D706C6561736520696E7075742063C9
:105380006F6D6D616E64210A0D0000002D3E2000DE
:105390000A0D5368656C6C2065786974210A0D00EC
:1053A0001B490979012930D119494A88491D895C6D
:1053B000017017494988491C154A1288914215D035
:1053C00013494988491CB1F5807F03D10021104A57
:1053D00051801CE00E4A5288511CCA1701EB126220
:1053E0001212A1EB02220A4B5A8010E0084A52889E
:1053F000511CCA1701EB12621212A1EB0222044BDC
:105400005A8002211A46117101E000210170704793
:10541000900100201B490979012930D119494A8896
:10542000491D895C017017494988491C154A128831
:10543000914215D013494988491CB1F5807F03D1A9
:105440000021104A51801CE00E4A5288511CCA1794
:1054500001EB12621212A1EB02220A4B5A8010E0F9
:10546000084A5288511CCA1701EB12621212A1EBB2
:105470000222044B5A8002211A46117101E00021D8
:1054800001707047C002002070B505460C4615B18A
:10549000012D08D103E02046FFF782FF04E02046FB
:1054A000FFF7B8FF00E000BF00BF002070BD08B5E7
:1054B00069460020FFF7E8FF9DF8000008BD10B521
:1054C00004462146002000F079FA10BD10B5FBF724
:1054D000EFFA40F22551194800F0E3F850B31748AD
:1054E00000F09AF9C4B216480088401CB0F5807FDD
:1054F00002D100201249088011480088401C104940
:105500004988884204D10E484088401C0C49488094
:105510000B480188401D4454411F0988481CC1178D
:1055200000EB11610912A0EB0121054A1180012055
:1055300011460871FBF7D2FA10BD00000038014097
:105540009001002010B5FBF7B3FA40F2255119483D
:1055500000F0A7F850B3184800F05EF9C4B217483D
:105560000088401CB0F5807F02D1002013490880DC
:1055700012480088401C11494988884204D10F48CC
:105580004088401C0D4948800C480188401D445407
:10559000411F0988481CC11700EB11610912A0EBDB
:1055A0000121064A1180012011460871FBF796FA85
:1055B00010BD00000044004000380140C00200203F
:1055C00001F40072B2F5007F00D100BFCA4302802F
:1055D000704721B1828942F40052828104E08289BD
:1055E0004DF6FF731A4082817047000010B50446E3
:1055F0002048844209D101218803FFF775FA002170
:105600004FF48040FFF770FA32E01B48844209D122
:1056100001214804FFF748FA00214FF40030FFF75A
:1056200043FA25E01548844209D101218804FFF797
:105630003BFA00214FF48020FFF736FA18E01048BB
:10564000844209D10121C804FFF72EFA00214FF44A
:105650000020FFF729FA0BE00A48844208D1012113
:105660000805FFF721FA00214FF48010FFF71CFA1C
:1056700010BD0000003801400044004000480040D8
:10568000004C00400050004002460020B1F5007F71
:1056900000D100BF13880B400BB1012000E00020B7
:1056A000704770B50246002400230025002040F614
:1056B0006A16B14200D100BFC1F3421501F01F03C9
:1056C000012606FA03F3012D02D19689334006E044
:1056D000022D02D1168A334001E0968A33400C1223
:1056E000012606FA04F41688344013B10CB10120E7
:1056F00000E0002070BDF0B5034600240026002520
:10570000002040F66A17B94200D100BF1846C1F325
:10571000421401F01F06012707FA06F5012C01D1FA
:105720000C3004E0022C01D1103000E014301AB12A
:1057300007682F43076002E00768AF430760F0BDCA
:105740002DE9F04786B005460E460024A24600BF6C
:10575000A1460027B08900B100BF2F462C8A4CF625
:10576000FF700440F08804432C82AC894EF6F3109D
:105770000440B08831890843718908430443AC81EF
:10578000AC8A4FF6FF400440B0890443AC8201A8C4
:10579000FFF7BAF91F48874202D1DDF810A001E0F7
:1057A000DDF80CA0A88900F4004040B10AEBCA0063
:1057B00000EB0A1031684900B0FBF1F807E00AEB92
:1057C000CA0000EB0A1031688900B0FBF1F86420D0
:1057D000B8FBF0F004012009642101FB1089A889BD
:1057E00000F4004040B1322000EBC900B0FBF1F002
:1057F00000F00700044308E0322000EB09106421A8
:10580000B0FBF1F000F00F0004432C8106B0BDE8BE
:10581000F08700000038014001468888C0F3080086
:105820007047C1F3080282807047000010B586B04F
:105830000446012144F20400FFF746F92548FFF72A
:10584000D5FE4FF40070ADF8140003208DF816005B
:1058500018208DF8170005A91F48FAF794FE4FF499
:105860008060ADF8140004208DF8170005A91A48CF
:10587000FAF789FE25208DF8000002208DF801003E
:105880008DF8020001208DF803006846FAF764FFE6
:1058900001940020ADF80800ADF80A00ADF80C0046
:1058A000ADF810000C20ADF80E0001A90948FFF773
:1058B00047FF012240F225510648FFF71CFF012156
:1058C0000448FFF786FE40210248FFF779FE06B044
:1058D00010BD0000003801400008014010B504462A
:1058E000214602A000F0B0F810BD000063687563A7
:1058F00068656E6725640D0A0000000010B586B06B
:10590000044601214804FFF7BFF801210420FFF7F6
:10591000DBF818208DF8170003208DF81600002002
:10592000ADF810000C20ADF80E000020ADF80C0012
:10593000ADF80A00ADF8080001210420FFF7C4F813
:105940000420ADF8140005A91848FAF71CFE082039
:10595000ADF8140005A91548FAF715FE0121480411
:10596000FFF792F8019401A91148FFF7E9FE2620FC
:105970008DF8000001208DF803008DF80100002053
:105980008DF802006846FAF7E7FE012240F2255141
:105990000748FFF7B0FE01210548FFF71AFE402136
:1059A0000448FFF70DFE06B010BD000000080140DE
:1059B000004400400038014000BFFEE770B50446D7
:1059C0000D4614B1012C18D10BE029460C48FFF705
:1059D00028FF00BF80210A48FFF756FE0028F9D0B3
:1059E0000CE029460748FFF71CFF00BF802105484F
:1059F000FFF74AFE0028F9D000E000BF00BF70BDED
:105A000000380140004400400EB518E001200C4968
:105A1000086002A80021C8230A46CDE90010084604
:105A2000FCF7E6F800200749C1F8800102A8002130
:105A3000C8230A46CDE900100846FCF7D9F8E5E787
:105A400080812142008021420FB4054B10B503A98B
:105A5000044A029800F01CF810BC5DF814FB00002A
:105A6000655F000808010020004870470C01002015
:105A700002E008C8121F08C1002AFAD17047704717
:105A8000002001E001C1121F002AFBD17047000075
:105A90002DE9FF4F8DB00F460546002606E025286C
:105AA0000BD0DDE90F1290476D1C761C287800287A
:105AB000F5D111B03046BDE8F08F0024A246A146D2
:105AC0000122EC4900E0044315F8013F203B02FAB3
:105AD00003F00842F7D128782A2810D06FF02F025F
:105AE0002878A0F13001092914D80AEB8A0102EBC9
:105AF000410144F0020400EB010A6D1CF0E701CF04
:105B00005FEA000A03D544F40054CAF1000A44F0E5
:105B100002046D1C28782E2817D115F8010F44F0C7
:105B200004042A280ED06FF02F022878A0F130014B
:105B300009290AD809EB890102EB410100EB0109AF
:105B40006D1CF2E757F8049B6D1C28786C280FD069
:105B500006DC4C2817D068280DD06A2814D104E040
:105B6000742810D07A280FD10DE044F400140AE014
:105B700044F4801401E044F440146978814202D175
:105B800004F580146D1C6D1C2A786E2A1FD00CDC65
:105B9000632A31D004DC002A8BD0582A11D1A3E02B
:105BA000642A68D0692A0CD165E0732A2ED004DCFF
:105BB0006F2A73D0702A04D19BE0752A6FD0782A9F
:105BC0006ED01046DDE90F129047761C50E1C4F309
:105BD0000250022806D0032809D0042801CF09D09A
:105BE000066045E101CFF117C0E9006140E101CF56
:105BF00006803DE106703BE117F8040B8DF80000CC
:105C000000208DF80100EB46012003E057F804BBAB
:105C10004FF0FF3061074FF0000102D40DE008F1B2
:105C20000101884649450FDA8045F8DB1BF808106A
:105C30000029F4D108E008F1010188468142FADB2D
:105C40001BF808100029F6D1DDE90F23AAEB0800A4
:105C50008146214600F036F9304400EB080604E0A6
:105C6000DDE90F121BF8010B9047B8F10108F7D2DC
:105C700021464846F7E00A21C4F302534FF0000BD7
:105C80000891022B04D001CFC117032B09D00AE0E1
:105C9000FF1D27F00707F7E8020108E032E01FE0E8
:105CA00020E000B2C117042B01D140B2C117031E7E
:105CB00071F1000307DA4FF0000CD0EB0C006CEB35
:105CC00001012D2302E0230504D52B238DF8243078
:105CD000012303E0E30701D02023F7E7984658E0CB
:105CE0000A2110E010210EE010204FF0000B089068
:105CF0000CE010214FF0000B44F004044FF00809B1
:105D0000089103E008214FF0000B0891C4F30253FF
:105D1000022B04D001CF0021032B06D006E0FF1D8B
:105D200027F00707F7E8020103E080B2042B00D157
:105D3000C0B24FF0000823072BD5702A07D0DDF83A
:105D400020C08CF0100C5CEA0B0C05D00EE0402358
:105D50008DF82430012308E050EA010306D03023F7
:105D60008DF824308DF8252002239846DDF820C0D8
:105D70008CF0080C5CEA0B0C0BD150EA010301D14A
:105D8000630706D530238DF824304FF00108A9F1C0
:105D90000109582A04D038A20B9208AA0A920BE0F3
:105DA0003AA2F9E75B46089AFAF7F8F90B9B9B5C75
:105DB0000A9A521E0A92137050EA0102F2D10A980E
:105DC000ADEB000000F1200B600702D524F4803415
:105DD00001E04FF00109D94502DDA9EB0B0000E01D
:105DE000002000EB0B0141440890AAEB010AE003FC
:105DF00006D4DDE90F232146504600F063F806443F
:105E00004FF0000908E009A911F80900DDE90F12B7
:105E1000904709F10109761CC145F4DBE0030CD57C
:105E2000DDE90F232146504600F04CF8064404E01B
:105E3000DDE90F1230209047761C0899481E089023
:105E40000029F5DC08E00A980A990078491C0A91B3
:105E5000DDE90F129047761CBBF10001ABF1010B9D
:105E6000F1DC21465046DDE90F2300F019F8064425
:105E70006D1C1BE6092801003031323334353637CA
:105E80003839616263646566000000003031323386
:105E90003435363738394142434445460000000026
:105EA0002DE9F041044600251E461746880404D417
:105EB00005E039462020B0476D1C641EF9D5284600
:105EC000BDE8F0812DE9F041044600251E469046CC
:105ED000C80301D5302700E02027880404D505E059
:105EE00041463846B0476D1C641EF9D52846BDE8CA
:105EF000F081000010B56FF00400FFF719F91448A5
:105F000000681449B0FBF1F01349087010480068AC
:105F10001049B0FBF1F411480068C910B1FBF0F072
:105F200044430E4800684FF47A71B1FBF0F00C491D
:105F300008804FF0E020006940F002004FF0E021BF
:105F4000086108464461006940F00100086110BD25
:105F50001C00002000127A00180000208C6100084C
:105F60001A00002000BF054A128802F04002002AF1
:105F7000F9D0C2B2014B1B1D1A8070470038014096
:105F800010B50FA0FFF760FD0EA0FFF75DFD002428
:105F90000DE004EB4400124B03EB8000826804EB3D
:105FA000440053F820100FA0FFF74EFD641C04EBD3
:105FB00044000B4951F820000028EAD110BD000030
:105FC0000D0A0000636D642D2D2D2D2D2D2D2D2DF1
:105FD0002D2D2D2D2D2D2D2D696E666F0D0A000096
:105FE000F0600008252D323073252D3238730D0AEC
:105FF000000000008AB000244FF4A060FAF7E4FB30
:10600000FAF750FBFFF776FFFAF75EFA09A8FAF7FE
:106010006DFC00BF00BF00BFFAF798F8044600BF50
:1060200000BF2B480078401C2949087000BF00BF02
:106030002046FAF78FF800BF00BF00BF09A8032170
:1060400000220592CDE90621089010464FF4007118
:106050003322204BCDE90132CDE903100920002382
:106060001D4A1EA100902048FBF706F800BF00BFA4
:1060700000BFFAF76BF8044600BF00BF1448007871
:10608000401E1349087008460078A0B917480088D8
:10609000002809DD00BF00BF2046FAF75BF800BF0B
:1060A00000BFFCF7A5FF0DE000BF00BF2046FAF7D8
:1060B00051F800BF06E000BF00BF2046FAF74AF8DB
:1060C00000BF00BF00BF09A8FAF784FE00BFFEE7CB
:1060D000A40000209C070020D55100087374617251
:1060E00074207461736B0000C803002068000020F6
:1060F000D8630008815F0008D8630008C463000803
:10610000DD580008CC63000800000000000000001B
:10611000000000005368656C6C5F46696E644675EC
:106120006E6342794E616D6500000000AC6700202F
:106130000C0000008000000000020000AC6900209C
:106140000A00000040010000EC6A00200C00000082
:106150008000000000020000EC6C002080000000C5
:10616000000200006400000040060000EC6E002009
:106170003E0000000A0000002C7500200C0000000A
:10618000800000000002000040000000C800000085
:10619000010000002C7700200C00000080000000AF
:1061A0000002000011000000880000000200000052
:1061B00064000000B47900200C00000080000000A2
:1061C0000002000011000000880000009014000090
:1061D00001000101785634120101000000000000A6
:1061E00000000000000000000000000000000000AF
:1061F000000000000000000000000000000000009F
:10620000000000000101010028000400200001003E
:10621000000000000000000000000000000000007E
:10622000000000000000000000000000000000006E
:1062300001002000010010000C0010000000000010
:10624000000000000000000000000000000000004E
:10625000000000000000000000000000000000003E
:106260000000000000000000010101002C000100FE
:1062700020000C0020004000080004000000000086
:10628000000000000000000000000000000000000E
:1062900000000000000000000000000000000000FE
:1062A00000000000000000000000000001010101EA
:1062B00030000100000000000000000000000000AD
:1062C00000000000000000000000000000000000CE
:1062D00000000000000000000000000001010101BA
:1062E00028000C000003000004010101010101016C
:1062F00001000101C40008000101000000000000CD
:10630000000000000000000000000000000000008D
:10631000000000000000000000000000000000007D
:10632000000000000000000000000000000000006D
:106330000101340008005C769607000000404040F0
:106340004040404040404141414141404040404048
:1063500040404040404040404040404040050202F4
:1063600002020202020202020202020202202020B3
:10637000202020202020200202020202020290900F
:10638000909090901010101010101010101010100D
:106390001010101010101010020202020202888861
:1063A000888888880808080808080808080808086D
:1063B0000808080808080808020202024000000055
:1063C0003D63000864627567000000007072696ECA
:1063D000746620696E666F0068656C70000000006E
:1063E000006400080000002010010000705A00083E
:1063F0001065000810010020108A0000805A000873
:106400000000000000000000010203040102030478
:1064100006070809020406080000000000A24A045A
:106420000000000000000000010203040607080944
:10643000000000000000000000000000000000005C
:10644000000000000000000000000000000000004C
:10645000000000000000000000000000000000003C
:10646000000000000000000000000000000000002C
:10647000000000000000000000000000000000001C
:10648000000000000000000000000000000000000C
:1064900000000000000000000000000000000000FC
:1064A00000000000000000000000000000000000EC
:1064B00000000000000000000000000000000000DC
:1064C00000000000000000000000000000000000CC
:1064D00000000000000000000000000000000000BC
:1064E00000000000000000000000000000000000AC
:1064F000000000000000000000000000000000009C
:10650000000000000000000000000000000000008B
:0400000508000131BD
:00000001FF
